:060000000A128A110C280F
:10000800FE00030EF5000A08F6000A128A113E28BF
:100018000A128A110F280A128A1122270A128A1133
:10002800CF000A128A1123270A128A11D0000A1255
:100038008A111F270A128A11FB000A128A11202727
:100048000A128A11FC000A128A1121270A128A113F
:10005800FD008313393084004F300A128A11FF26BD
:100068000A128A11F701F801F901FA0183010A124B
:100078008A11E4290B1C41284228512883120313B2
:100088008618472848284B28BF01BF0A5028061958
:100098004E284F285028BF010B10831203130C1F42
:1000A8005628572860280A128A11F4260A128A113B
:1000B800700883120313CC008C1E63286428A528BB
:1000C8001A08FA007A08031D6A286B286E28500857
:1000D800C800A3287A03031D7228732876287C0891
:1000E800C800A32802307A06031D7B287C287F28B5
:1000F8007D08C800A32803307A06031D84288528B4
:1001080088284C08C800A32804307A06031D8D28C7
:100118008E2891284508C800A32805307A06031DB3
:10012800962897289A284408C800A32806307A06F3
:10013800031D9F28A028A3284108C800A328480811
:1001480099000B1DA828A928CD287703031DAD28E1
:10015800AE28CC287903031DB228B328BD28F9019D
:100168007908031DB828B928BA2808107B08810027
:10017800CC287908031DC128C228CC28F901F90A1E
:100188007903031DC828C928CA2808147B098100D7
:100198000B110C1CD028D1280B297703031DD52857
:1001A800D6280A290130F4007408C2070A3042062A
:1001B800031DDF28E028E92840080319E428E62879
:1001C8000130E7280030C000C2014308031DED28B4
:1001D800EE28FB280130F4007408FB0723307B026B
:1001E800031CF728F8280A29C301C30A0A2943036C
:1001F800031DFF2800290A290130FB0209307B0270
:100208000318072908290A29C3010A290C108C1C7C
:100218000E290F29DD297703031D13291429DC2949
:100228004003031D182919297F297808031D1D2952
:100238001E2925298815081688120813F801F80AB6
:10024800DC297803031D29292A2931298811081650
:10025800881208130230F800DC2902307806031DE2
:10026800362937293E2988110816881608130330BD
:10027800F800DC2903307806031D432944294B295B
:1002880088110812881608130430F800DC29043095
:100298007806031D502951295829881108128816F3
:1002A80008170530F800DC2905307806031D5D299C
:1002B8005E29652988110812881208170630F80087
:1002C800DC2906307806031D6A296B2972298815EE
:1002D8000812881208170730F800DC29073078065A
:1002E800031D772978297E29881508128812081392
:1002F800F801DC29DC294008031D83298429DC292D
:100308007808031D882989298E29881508168812D6
:1003180008136F297803031D9229932998298811B6
:100328000816881208137C2902307806031D9D29B7
:100338009E29A5298811081688160813F801F80AB5
:10034800DC2903307806031DAA29AB29B0298811B6
:100358000812881608132E2904307806031DB529BB
:10036800B629BB2988110812881608173B290530B9
:100378007806031DC029C129C629881108128812C8
:100388000817482906307806031DCB29CC29D1291E
:100398008815081288120817552907307806031D92
:1003A800D629D7297E2988150812881208136229A8
:1003B8008C1076088A00750E8300FE0E7E0E0900EA
:1003C8000A128A1155230A128A118312031350083C
:1003D8000A128A113B260A128A1183120313D000CB
:1003E8007C080A128A113B260A128A11FC007D0831
:1003F8000A128A113B260A128A11FD000A128A1172
:100408000F270A128A11D0300A128A11E9260A1215
:100418008A1100300A128A11E9260A128A118312F7
:10042800031350080A128A11E9260A128A117C0855
:100438000A128A11E9260A128A117D080A128A11FB
:10044800E9260A128A110A128A1107270A128A1142
:10045800023083120313B8000430B700B930B60075
:10046800B60B342AB70B342AB80B342A3B2A0A12A3
:100478008A110F270A128A11D0300A128A11E92626
:100488000A128A1100300A128A11E9260A128A1100
:100498000A128A1117270A128A11D1300A128A11F0
:1004A800E9260A128A110A128A11C2260A128A1128
:1004B80083120313D0000A128A11DC260A128A1149
:1004C8000A128A11C2260A128A11FC000A128A111B
:1004D800DC260A128A110A128A11C2260A128A1105
:1004E800FD000A128A11CF260A128A110A128A11ED
:1004F80007270A128A11413083120313B700ED301F
:10050800B600B60B852AB70B852A8A2A0C300A1240
:100518008A116D260A128A110A128A110F270A12E5
:100528008A1190300A128A11E9260A128A110030BB
:100538000A128A11E9260A128A110A128A11172741
:100548000A128A1191300A128A11E9260A128A11AE
:100558000A128A11C2260A128A1183120313C100D1
:100568000A128A11CF260A128A110A128A1107273B
:100578000A128A11413083120313B700ED30B60016
:10058800B60BC42AB70BC42AC92A03108312031353
:10059800861C0314003003180130C5000310061D23
:1005A8000314003003180130C4007708031DDD2A46
:1005B800DE2AE02A8813E62A7703031DE42AE52ABF
:1005C800E62A88177703031DEA2AEB2A082B8316E5
:1005D80003130C148312031310148B1612158316AD
:1005E80003138C14831203133F03031DFC2AFD2AF3
:1005F800002B881408111D2B3F08031D042B052B05
:100608001D2B881008151D2B7708031D0C2B0D2B8F
:100618001D2B0810831603130C10831203131010DC
:100628008B121211831603138C1083120313881074
:1006380008110F304102031C222B232B502B64304E
:100648004C02031C282B292B502B7D080A128A11D7
:1006580091260A128A1183120313CF0007304F061E
:10066800031D372B382B3B2BF701F70A3B2A0A309F
:100678004F06031D402B412B422B382B0D304F06C4
:10068800031D472B482B492B382B10304F06031DD1
:100698004E2B4F2B502B382BF7013B2A0A128A116D
:1006A8000C2883160317880189010F30831603135A
:1006B8008600813087008501831203138501831624
:1006C80003138801831203138601880102300A127A
:1006D8008A11B6250A128A11003083120313B10059
:1006E8000130B0008630AF00A030AE000A128A1187
:1006F80001260A128A110B178B17831203130C1386
:10070800831603130C178C168B16403083120313B1
:10071800A0000030A1000A128A11AB240A128A1123
:100728000B118312031381010C1022308F008E01EC
:10073800901090161016831603130C1483120313CB
:1007480010148C10143083160313920083120313B1
:100758009101033092047830920412158316031322
:100768008C148B15063096000B1083120313A0010E
:10077800A10101300A128A116A250A128A11831608
:1007880003131812181583160317871519308316C3
:10079800031399009A0183120313981783160313FE
:1007A80018139816831203131816080083120313DC
:1007B800A601A11FE02BE12BE82BA009A109A00AA3
:1007C8000319A10AA601A60AA31FEB2BEC2BF52BF4
:1007D800A209A309A20A0319A30A0130A400240844
:1007E800A606A701A801200821040319FC2BFD2B4C
:1007F800342CA501A50A0B2C01300310A00DA10D66
:10080800FF3E031D012C0130A4002408A507A11FE9
:100818000E2C0F2C002C01300310A70DA80DFF3E45
:10082800031D102C21082302031D1C2C2008220262
:10083800031C1F2C202C272C2008A2022108031C93
:10084800A303A302271401300310A10CA00CFF3E40
:10085800031D282C0130A502031D332C342C0F2C2A
:1008680026080319382C392C3E2CA709A809A70AF1
:100878000319A80A2808A1002708A00008000030CA
:1008880083120313AC000030AB000030AA00003024
:10089800A90023082204210420040319542C552CF0
:1008A800A22CAD01AD0A652C0130A8000310A00DE3
:1008B800A10DA20DA30DA80B5A2C0130A8002808E1
:1008C800AD07A31F682C692C582C0130A800031011
:1008D800A90DAA0DAB0DAC0DA80B6B2C2308270294
:1008E800031D802C22082602031D802C21082502C6
:1008F800031D802C20082402031C832C842C932C99
:100908002008A4022108031C210FA5022208031CA9
:10091800220FA6022308031C230FA7022914013063
:100928000310A30CA20CA10CA00CFF3E031D942CD9
:100938000130AD02031DA12CA22C692C2C08A300A8
:100948002B08A2002A08A1002908A0000800831685
:10095800031381128111E42CF830831603138105E7
:100968000A2D831603130108F839013881000A2D6E
:10097800831603130108F839023881000A2D8316FB
:1009880003130108F839033881000A2D831603136D
:100998000108F839043881000A2D83160313010869
:1009A800F839053881000A2D831603130108F83930
:1009B800063881000A2D07308316031381040A2D97
:1009C800831203132108003A0319EE2C013A031984
:1009D800052D0A2D2008023A0319B02C063A0319EE
:1009E800B52C0C3A0319BC2C183A0319C32C303A0D
:1009F8000319CA2C603A0319D12CC03A0319D82C10
:100A08000A2D2008003A0319DF2C0A2D9E30831284
:100A180081000B11080083120313A601A31F152DD3
:100A2800162D1D2DA209A309A20A0319A30AA601BE
:100A3800A60AA11F202D212D262DA009A109A00A53
:100A48000319A10A2008210403192B2D2C2D5B2D35
:100A5800A501A50A3A2D01300310A00DA10DFF3EF6
:100A6800031D302D0130A4002408A507A11F3D2D2A
:100A78003E2D2F2D21082302031D442D200822027C
:100A8800031C472D482D4E2D2008A2022108031CC7
:100A9800A303A30201300310A10CA00CFF3E031D09
:100AA8004F2D0130A502031D5A2D5B2D3E2D260822
:100AB80003195F2D602D652DA209A309A20A031948
:100AC800A30A2308A1002208A00008008312031328
:100AD800A4007E2D3F309F05942D1F083F394038D4
:100AE8009F00942D1F083F3980389F00942DC030F7
:100AF8009F04942D2408A200A3012308003A031997
:100B0800862D942D2208003A03196E2D013A0319F7
:100B1800712D033A0319762D013A03197B2D942D73
:100B2800200C83160313031C1F1203181F168312AD
:100B38000313210C83160313031C9F1203189F161B
:100B4800C330831203139F05831603139F13831265
:100B580003131F140C3083120313A200A20BB22D2F
:100B68000000080083120313A200831603130F1456
:100B7800E52D831603130F088F3940388F00002E98
:100B8800831603130F088F3950388F00002E8316F1
:100B980003130F088F3960388F00002E70308316CA
:100BA80003138F04002E831603130F088F39303870
:100BB8008F00002E831603130F088F3960388F00BB
:100BC800002E831203132208A000A1012108003A75
:100BD8000319EF2DDE2D2008003A0319BD2D013A27
:100BE8000319C42D033A0319CB2D013A0319D22D49
:100BF800073A0319D72DDE2D080028308312031376
:100C08009400831603139101831203132E08B20074
:100C18002F08B3003008B4003108B50002300310C3
:100C2800B20DB30DB40DB50DFF3E031D132E3508DF
:100C3800A3003408A2003308A1003208A000003045
:100C4800A7007A30A6001230A5000030A4000A12CE
:100C58008A1143240A128A11831203132008FF3EC3
:100C6800831603139300940187150716080083124F
:100C78000313AE000A30A0000030A1002E08A9001E
:100C8800AA012908A2002A08A3000A128A11DA2355
:100C98000A128A11831203132008AB0004300310D0
:100CA800AB0DFF3E031D532E0A30A0000030A100FB
:100CB8002E08AC00AD012C08A2002D08A3000A12D2
:100CC8008A110F250A128A118312031320082B0791
:100CD800080083120313A1000E3021020318752E99
:100CE800762E802E2108A000A00DA00D1F0820063A
:100CF800C33920069F00822EC3309F050C30831213
:100D08000313A000A00B862E0000831203139F1468
:100D18009F188F2E902E8C2E080083120313A60086
:100D28000F302605A4000A30A0002608A5000430CC
:100D38000310A50CFF3E031D9C2E25080A128A11DC
:100D4800AB260A128A1183120313240708008312A0
:100D58000313A300A201231CB22EB32EB72E200822
:100D6800A1002108A2070310A00D0310A30C23085B
:100D7800031DBF2EC02EAF2E2208080083120313B6
:100D88008C1183160313911583128C1DCC2ECD2E36
:100D9800C82E13080800831203138C11831603133B
:100DA8009116111683128C1DDA2EDB2ED62E080012
:100DB800831203138C1183160313911211168312D5
:100DC8008C1DE72EE82EE32E080083120313A000E3
:100DD8008C11200893008C1DF22EF32EEF2E0800A4
:100DE800831203130C131E08F200F3017208F000BB
:100DF8007308F100080064008001840A04060319DE
:100E080000340406002F83160313111511190D2F32
:100E18000E2F0A2F08008316031311141118152F0B
:100E2800162F122F080083160313911491181D2FE3
:100E38001E2F1A2F080019343B340C3401342D347A
:08400000FF3FFF3FFF3FFF3FC0
:04400E00D420FF3F7C
:00000001FF
